:100000000C9463000C948B000C948B000C948B006C
:100010000C948B000C948B000C948B000C948B0034
:100020000C948B000C948B000C948B000C94BE07EA
:100030000C948B000C948B000C948B000C948B0014
:100040000C9474070C948B000C9442070C941C07BE
:100050000C948B000C948B000C948B000C948B00F4
:100060000C948B000C948B000000000024002700EF
:100070002A0000000000250028002B0000000000DE
:1000800023002600290004040404040404040202DA
:100090000202020203030303030301020408102007
:1000A0004080010204081020010204081020000012
:1000B0000008000201000003040700000000000027
:1000C00000007A08110C11241FBECFEFD8E0DEBF6C
:1000D000CDBF11E0A0E0B1E0E8E8FDE102C005908D
:1000E0000D92A23BB107D9F723E0A2EBB1E001C02A
:1000F0001D92AE31B207E1F710E0C2E6D0E004C0D5
:100100002197FE010E94BF0CC136D107C9F70E949A
:1001100076090C94B70E0C940000CF92DF92EF9208
:10012000FF92DC01A03282E0B807D4F5A53BB1050F
:1001300014F0A4EBB0E04091180328E830E0241B51
:10014000310947FD3395220F331F220F331F6901F9
:10015000330FEE08FF084091190328E532E0241B15
:10016000310947FD3395220F331F220F331F032E12
:10017000000C440B550B2C193D094E095F09B7FFC4
:1001800002C0B0E0A0E00E94430C24EB30E040E06D
:1001900050E00E94190CC20ED31EE41EF51ED601BB
:1001A000E0911703EC3080F52091180388E890E087
:1001B000821B910927FD9395880F991F880F991F1E
:1001C000A817B90784F02091190388E592E0821BF3
:1001D000910927FD9395880F991F880F991FA817DC
:1001E000B9070CF4CD010297880F991F4FB7F89407
:1001F0002E2F30E0F901EE0FFF1FE20FF31FE15A3F
:10020000FD4F928381834FBFFF90EF90DF90CF909F
:10021000089596E0899FD0011124A057BD4F909674
:100220007C936E935F9791E091969C939197E09168
:10023000FD02F091FE029091FC02992339F0309773
:1002400051F0811108C08091AC020994309719F0E7
:100250005C968C91FACF0895CF92DF92EF92FF9245
:100260000F931F9396E0899FF0011124E057FD4FF3
:1002700011A2278D30A12130310551F178F02230C3
:10028000310509F451C02330310509F452C01F91E2
:100290000F91FF90EF90DF90CF9008956623B9F310
:1002A00061E070E00E9409012FB7F8948091BE01CF
:1002B0009091BF01A091C001B091C1012FBF809367
:1002C000E8029093E902A093EA02B093EB02DFCF39
:1002D0009FB7F894C090BE01D090BF01E090C001DC
:1002E000F090C1019FBF0091E8021091E9022091B6
:1002F000EA023091EB02C01AD10AE20AF30A009135
:10030000FA021091FB0230E020E00C151D052E05CD
:100310003F0550F462E070E01F910F91FF90EF9065
:10032000DF90CF900C9409016111B1CF63E070E0D0
:10033000F3CF70E060E0F0CFFC01248135816217DB
:10034000730720F480819181009729F41092B801FD
:1003500088EB91E00895860F971F0895AF92BF92A2
:10036000CF92DF92EF92FF920F931F93CF93DF9381
:100370006C017B018B01040F151FEB015E01AE18B0
:10038000BF08C017D10759F06991D601ED91FC91D2
:100390000190F081E02DC6010995892B79F7C501FF
:1003A000DF91CF911F910F91FF90EF90DF90CF9051
:1003B000BF90AF900895FC01538D448D252F30E000
:1003C000842F90E0821B930B541710F0CF96089562
:1003D00001970895FC01918D828D981761F0A28D8F
:1003E000AE0FBF2FB11D5D968C91928D9F5F9F7355
:1003F000928F90E008958FEF9FEF0895FC01918D0B
:10040000828D981731F0828DE80FF11D858D90E077
:1004100008958FEF9FEF0895FC01918D228D892F14
:1004200090E0805C9F4F821B91098F7399270895FC
:1004300082EC91E00E940C0221E0892B09F420E07B
:10044000822F089580E090E0892B29F00E94180205
:1004500081110C9400000895FC01A48DA80FB92F00
:10046000B11DA35ABF4F2C91848D90E001968F73DC
:100470009927848FA689B7892C93A089B1898C91FB
:10048000837080648C93938D848D981306C002884A
:10049000F389E02D80818F7D80830895EF92FF9214
:1004A0000F931F93CF93DF93EC0181E0888F9B8D97
:1004B0008C8D98131AC0E889F989808185FF15C051
:1004C0009FB7F894EE89FF896083E889F989808174
:1004D0008370806480839FBF81E090E0DF91CF9143
:1004E0001F910F91FF90EF900895F62E0B8D10E065
:1004F0000F5F1F4F0F731127E02E8C8D8E110CC0D4
:100500000FB607FCFACFE889F989808185FFF5CF1E
:10051000CE010E942C02F1CFEB8DEC0FFD2FF11DCF
:10052000E35AFF4FF0829FB7F8940B8FEA89FB895B
:1005300080818062CFCFCF93DF93EC01888D8823B9
:10054000B9F0AA89BB89E889F9898C9185FD03C036
:10055000808186FD0DC00FB607FCF7CF8C9185FF1B
:10056000F2CF808185FFEDCFCE010E942C02E9CF32
:10057000DF91CF910895833081F028F4813099F094
:100580008230A9F008958730A9F08830C9F084300E
:10059000B1F4809180008F7D03C0809180008F77BF
:1005A00080938000089584B58F7784BD089584B5C5
:1005B0008F7DFBCF8091B0008F778093B00008953E
:1005C0008091B0008F7DF9CFCF93DF93282F30E05B
:1005D000F901E255FF4F8491F901E656FF4FD4919E
:1005E000F901EA57FF4FC491CC23A1F081110E9479
:1005F000BB02EC2FF0E0EE0FFF1FE458FF4FA59178
:10060000B491EC91ED2381E090E009F480E0DF917A
:10061000CF91089580E090E0FACF862F0C94E40209
:100620001F93CF93DF93282F30E0F901E255FF4F5E
:100630008491F901E656FF4FD491F901EA57FF4F33
:10064000C491CC23A9F0162F81110E94BB02EC2F7C
:10065000F0E0EE0FFF1FEE58FF4FA591B4918FB75A
:10066000F894EC91111108C0D095DE23DC938FBF74
:10067000DF91CF911F910895DE2BF8CF862F642F45
:100680000C941003CF93DF9390E0FC01E656FF4FEC
:1006900024918A579F4FFC0184918823C9F090E0F0
:1006A000880F991FFC01E859FF4FA591B491FC01F7
:1006B000EE58FF4FC591D49161110DC09FB7F894CA
:1006C0008C91209582238C938881282328839FBF37
:1006D000DF91CF910895623051F49FB7F8943C9127
:1006E000822F809583238C93E8812E2BEFCF8FB7B9
:1006F000F894EC912E2B2C938FBFEACF862F642F8A
:100700000C9442036F927F928F929F92AF92BF920E
:10071000CF92DF92EF92FF920F931F93CF93DF93CD
:1007200081E08093FC028FB7F8944091BE01509114
:10073000BF016091C0017091C1018FBF8091EC0237
:100740009091ED02A091EE02B091EF02481B590B7F
:100750006A0B7B0B8091F8029091F902B0E0A0E067
:1007600084179507A607B70708F01DC1C0E0809160
:10077000F602C81760F4E091F202F091F302EC0F78
:10078000F11D62E080810E944203CF5FF0CF712CA7
:10079000812C912C540183948091F702781608F0F3
:1007A0005FC0072D10E0E091F402F091F502E00F38
:1007B000F11F61E080810E944203E091F402F09118
:1007C000F502E00FF11F60E080810E941003D50167
:1007D000C401072C04C0880F991FAA1FBB1F0A94CD
:1007E000D2F76C017C01E094F094612C8091F602C8
:1007F0006816F8F4C62DD0E0E091F202F091F30211
:10080000EC0FFD1F80810E94E4022496CC0FDD1FB7
:10081000C057DD4F892B41F4888199818C299D290E
:10082000998388836394E2CF888199818E219F2167
:10083000F7CFE091F402F091F502E00FF11F61E0D3
:1008400080810E9410038091F4029091F502080FBC
:10085000191F60E0F80180810E94420373949CCFCD
:10086000C0E9D2E0FE018FEF9FEF278D30A1232B4F
:1008700021F4148E968F858F11A2369622E0EC3CDF
:10088000F20799F7F12C96E0D92E8091F602F8162E
:1008900008F050C0E12C0F2D10E0000F111F08567A
:1008A0001D4F2091F702E21608F042C0F801608166
:1008B00071810E2C02C0769567950A94E2F7F29E3C
:1008C000900111242E0D311DE0E9F2E080E0458D0C
:1008D000568D2417350709F46AC08F5F36968A3023
:1008E000B1F760FF23C0E0E9F2E090E080E0448DE2
:1008F000411117C0E091F002F091F102E20FF31FF5
:100900004081D89EF001D99EF00D1124E057FD4F93
:10091000448F368F258F10A2178E61E00E942C0124
:1009200005C0019636968A30910509F7E394B9CF50
:10093000F394ABCF80E099A19111892F2696F2E034
:10094000CC3CDF07C1F79FB7F8944091BE015091AE
:10095000BF016091C0017091C1019FBF4093EC0243
:100960005093ED026093EE027093EF028823D9F06A
:100970008091B1028823B9F08091AF029091B002CA
:10098000019789F48091AC02DF91CF911F910F9173
:10099000FF90EF90DF90CF90BF90AF909F908F909F
:1009A0007F906F9008951092FC0280E0EDCF61700F
:1009B000B5CF3FB7F8948091B4019091B501A09163
:1009C000B601B091B70126B5A89B05C02F3F19F01D
:1009D0000196A11DB11D3FBFBA2FA92F982F8827BF
:1009E000BC01CD01620F711D811D911D42E0660F9A
:1009F000771F881F991F4A95D1F708958F929F926C
:100A0000AF92BF92CF92DF92EF92FF924B015C01C7
:100A10000E94D9046B017C010E94D9046C197D09E4
:100A20008E099F09683E734081059105A8F321E076
:100A3000821A9108A108B10888EEC80E83E0D81E7A
:100A4000E11CF11C81149104A104B10429F7FF9069
:100A5000EF90DF90CF90BF90AF909F908F900895D0
:100A6000089590E080E00895CF93DF93EC0160E07B
:100A70008E810E94100361E08E810E94100360E06D
:100A80008E810E9410038BE891E00197F1F7DF91CE
:100A9000CF910895CF92DF92EF92FF920F931F9321
:100AA000CF93DF936C017C0187E0E80EF11CD0E06E
:100AB000C0E0062F10E0B8010C2E02C075956795B6
:100AC0000A94E2F76170F70181917F010E9410039F
:100AD0002196C430D10579F7C601DF91CF911F91DE
:100AE0000F91FF90EF90DF90CF900C943405CF9250
:100AF000DF92EF92FF920F931F93CF93DF93EC015E
:100B0000F62E642F8C810E9410038D818F3F19F087
:100B100060E00E9410030F2D10E08F8584FF25C038
:100B20006E0187E0C80ED11CF12CE12CB8010E2C0F
:100B300002C0759567950A94E2F76170F60181919C
:100B40006F010E941003FFEFEF1AFF0A88E0E8161A
:100B5000F10461F7CE01DF91CF911F910F91FF90CA
:100B6000EF90DF90CF900C943405B80184E0759538
:100B700067958A95E1F7CE010E944A056F2DCE0157
:100B8000DF91CF911F910F91FF90EF90DF90CF9069
:100B90000C944A0540E0682F8FEF92E00C947705A3
:100BA00081E00E94CA058BE39FE10197F1F7089568
:100BB000CF93DF93823029F490910E039860909345
:100BC0000E03809312031092130380E480931403A6
:100BD00080E18093150380E58093160361E08091A6
:100BE00003030E944203809104038F3F19F061E0E8
:100BF0000E94420361E0809105030E944203CFEF0F
:100C0000D2E09E012F5F324080910E0384FD0BC025
:100C100084E090E021962817390744F461E08E8142
:100C20000E944203EECF88E090E0F4CF8BE39DE09A
:100C30000197F1F760E0809103030E94100360E0E8
:100C4000809105030E941003809104038F3F19F0E7
:100C500060E00E94100380910E0384FD34C063E0C5
:100C60008FEF92E00E944A05CBE4D6E4CE010197D3
:100C7000F1F763E08FEF92E00E944A052197F1F7C8
:100C800063E08FEF92E00E944A0583E592E00197CE
:100C9000F1F762E08FEF92E00E944A0580910E0327
:100CA00080620E94CA0584E080930F038CE00E945A
:100CB000CA050E94D00582E08093100386E0DF9190
:100CC000CF910C94CA0580620E94CA058BE496E419
:100CD0000197F1F780910E0380620E94CA0583E5B7
:100CE00092E00197F1F780910E0380620E94CA059D
:100CF000D5CF90911203691710F06FEF690FE62FAF
:100D0000F0E0E150FD4F9489890F80680C94CA058A
:100D100041E00E94770581E090E00895FC01019098
:100D20000020E9F73197AF01481B590BBC018FEF49
:100D300092E00C94AE01CF93DF930E948E06EC01FB
:100D400081E491E00E948E068C0F9D1FDF91CF9170
:100D5000089561E080E00E94790684E491E00E94B9
:100D60009B0660E080E00E94790683E591E00C94A8
:100D70009B06CF93DF93EC0188819981009711F056
:100D80000E94610D198218821D821C821B821A82A8
:100D9000DF91CF910895FC0180819181009711F03E
:100DA0000C94610D08950F931F93CF93DF93EC0183
:100DB00088819981009759F02A813B81261737074E
:100DC00030F081E0DF91CF911F910F9108958B0159
:100DD0006F5F7F4F0E94EA0D009759F099838883D7
:100DE0001B830A832C813D81232B59F7FC01108240
:100DF000E8CF80E0E7CFEF92FF920F931F93CF935E
:100E0000DF93EC017B018A01BA010E94D3068111B4
:100E10000BC0CE010E94B906CE01DF91CF911F9188
:100E20000F91FF90EF9008951D830C83B701888187
:100E300099810E94B00EF0CF1F920F920FB60F92C1
:100E400011242F933F934F935F936F937F938F93CF
:100E50009F93AF93BF93EF93FF9382EC91E00E9437
:100E60002C02FF91EF91BF91AF919F918F917F9154
:100E70006F915F914F913F912F910F900FBE0F9007
:100E80001F9018951F920F920FB60F9211242F9357
:100E90008F939F93EF93FF93E091D201F091D30151
:100EA0008081E091D801F091D90182FD1BC0908131
:100EB0008091DB018F5F8F732091DC01821741F0FD
:100EC000E091DB01F0E0EE53FE4F958F8093DB0164
:100ED000FF91EF919F918F912F910F900FBE0F90E7
:100EE0001F9018958081F4CF1F920F920FB60F922A
:100EF00011242F933F938F939F93AF93BF93809130
:100F0000BE019091BF01A091C001B091C10130918B
:100F1000B30123E0230F2D3758F50196A11DB11D14
:100F20002093B3018093BE019093BF01A093C001B1
:100F3000B093C1018091B4019091B501A091B60127
:100F4000B091B7010196A11DB11D8093B40190939A
:100F5000B501A093B601B093B701BF91AF919F9136
:100F60008F913F912F910F900FBE0F901F9018956A
:100F700026E8230F0296A11DB11DD2CF1F920F921A
:100F80000FB60F9211242F933F934F935F936F935C
:100F90007F938F939F93AF93BF93CF93DF93EF9301
:100FA000FF938091B201C0918302D0E087FF24C0FB
:100FB00010928500109284008091B2018F5F80931F
:100FC000B2018091B201082E000C990B8C179D077D
:100FD00024F48091B2018C30C4F18091840090910E
:100FE0008500049680349C4908F47AC0809184007E
:100FF00090918500049676C08091B201082E000C75
:10100000990B8C179D07C4F6E091B2018E2FEE0F5D
:10101000990BFC01EE0FFF1FE80FF91FE15AFD4F7E
:10102000808186FFC9CFE091B2018E2FEE0F990B20
:10103000FC01EE0FFF1FE80FF91FE15AFD4F808101
:1010400060E08F730E941003B7CF2091840030912D
:101050008500E091B2018E2FEE0F990BFC01EE0F8F
:10106000FF1FE80FF91FE15AFD4F81819281820F26
:10107000931F9093890080938800E091B2018E2F96
:10108000EE0F990BFC01EE0FFF1FE80FF91FE15A5D
:10109000FD4F808186FF11C0E091B2018E2FEE0FCF
:1010A000990BFC01EE0FFF1FE80FF91FE15AFD4FEE
:1010B000808161E08F730E941003FF91EF91DF91B7
:1010C000CF91BF91AF919F918F917F916F915F91E0
:1010D0004F913F912F910F900FBE0F901F90189539
:1010E00080E49CE990938900809388008FEF80933F
:1010F000B201E3CF1092C5011092C40188EE93E0D3
:10110000A0E0B0E08093C6019093C701A093C8010E
:10111000B093C9018DE191E09093C3018093C20126
:1011200085EC90E09093CF018093CE0184EC90E029
:101130009093D1018093D00180EC90E09093D30103
:101140008093D20181EC90E09093D5018093D401FB
:1011500082EC90E09093D7018093D60186EC90E0EA
:101160009093D9018093D8011092DB011092DC0199
:101170001092DD011092DE01809183028C3008F024
:10118000B1C091E0980F909383028093170390E091
:10119000FC01EE0FFF1FE80FF91FE15AFD4F88EB2E
:1011A0009BE092838183109202031092010389E3F2
:1011B00091E0909300038093FF028EE080930303FD
:1011C0008FEF809304038FE08093050380E1809389
:1011D000060381E18093070382E18093080383E1A2
:1011E0008093090310920A0310920B0310920C03D0
:1011F00010920D0310920E0381E00E94D805109208
:1012000092021092960210929502109297028FE22B
:1012100091E09093910280939002ECEAF2E01082C8
:10122000148213821582369682E0E83EF807B9F7F9
:1012300083E091E09093F3028093F20280E091E0EA
:101240009093F5028093F40284E08093F60283E0A9
:101250008093F70287E091E09093F1028093F0028F
:101260008AE090E09093F9028093F80284EF91E095
:101270009093FB028093FA021092FE021092FD02FC
:101280001092EC021092ED021092EE021092EF0218
:101290001092FC0210928B0210928A0210928D0220
:1012A00010928C0210928F0210928E0244E050E055
:1012B00064E671E08AE892E00E94FB0610928502E3
:1012C0001092840210928702109286021092890274
:1012D0001092880250E040E063E471E084E892E01C
:1012E0000C94FB068FEF809317035DCFCF93DF93B2
:1012F000CDB7DEB728970FB6F894DEBF0FBECDBFCF
:10130000789484B5826084BD84B5816084BD85B5E0
:10131000826085BD85B5816085BD80916E008160EC
:1013200080936E0010928100809181008260809392
:101330008100809181008160809381008091800094
:101340008160809380008091B10084608093B100BF
:101350008091B00081608093B00080917A008460B9
:1013600080937A0080917A00826080937A008091E5
:101370007A00816080937A0080917A0080688093FF
:101380007A001092C1000E94A906E091D201F0916A
:10139000D30182E08083E091CE01F091CF011082F1
:1013A000E091D001F091D1018FEC80831092DA01AD
:1013B000E091D601F091D70186E08083E091D401DD
:1013C000F091D501808180618083E091D401F0911A
:1013D000D501808188608083E091D401F091D501AE
:1013E000808180688083E091D401F091D501808173
:1013F0008F7D808361E08AE00E94420361E08BE0A0
:101400000E944203809117038C3008F051C061E0C4
:1014100089E00E94420380911703282F30E0F901F0
:10142000EE0FFF1FE20FF31FE15AFD4F9081907CFA
:101430009960908310921803109219032CE0622F88
:101440000E94B30C829FB001112430E020E0AB0178
:10145000420F531FFA01EE0FFF1FE40FF51FE15A71
:10146000FD4F908196FD16C02F5F3F4F2C30310508
:1014700071F781110FC01092800082E0809381008B
:101480001092850010928400B19A80916F00826062
:1014900080936F00E09117038E2F90E0FC01EE0F18
:1014A000FF1FE80FF91FE15AFD4F808180648083A0
:1014B00084EB90E00E948D0082E00E94D80580E0DD
:1014C000E82E80E0F82E94EBC92ED12C8091BD013E
:1014D000811165C10E94E402009709F073C060E0C9
:1014E0008BE00E94100361E08AE00E94100380916B
:1014F000BB019091BC01892B11F40E94A9060E94A6
:101500008203182F882309F413C11A8219821C82BE
:101510001B821E821D82609184027091850261157A
:10152000710541F04091880250918902CE010196E7
:101530000E94FB061F8318860D811E810F5F1F4FBF
:10154000B801CE0101960E94D306882309F443C056
:1015500029813A818D819E81BE01695F7F4F820F13
:10156000931F0E94B00E1E830D8369817A816115DD
:101570007105B1F14D815E8184E892E00E94FB0625
:10158000CE0101960E94CB060E94D00560E080E06B
:101590000E94790689E691E00E948E0660E08AE06A
:1015A0000E94790610E000E08091BB019091BC019F
:1015B00080179107D4F083E791E00E948E060F5FB9
:1015C0001F4FF2CF019709F092CF61E08BE00E94AC
:1015D000100360E089CFCE0101960E94B906C5CF05
:1015E00084E892E00E94B906CBCF01969093BC01AB
:1015F0008093BB018091880290918902049709F041
:1016000097C070E060E084E892E00E949C01FC01D9
:10161000108170E060E08AE892E00E949C01FC0189
:101620008081181391C061E070E084E892E00E942C
:101630009C01FC01108161E070E08AE892E00E9468
:101640009C01FC01808118137FC062E070E084E897
:1016500092E00E949C01FC01108162E070E08AE847
:1016600092E00E949C01FC01808118136DC063E030
:1016700070E084E892E00E949C01FC01108163E02C
:1016800070E08AE892E00E949C01FC0180811813BE
:101690005BC081E08093BD0164E873E080E090E08E
:1016A0000E94FE040E94D00560E081E00E9479065D
:1016B00085E791E00E948E0661E085E00E94790650
:1016C00084E891E00E949B06D092BA01C092B901D1
:1016D0000091B9011091BA0117FD10C0C8010E9414
:1016E0008D0065E070E080E090E00E94FE0405500F
:1016F00011091093BA010093B901EACF60E08BE0C1
:101700000E94100360E08AE00E94100364EF71E021
:1017100080E090E00E94FE041092BC011092BB0198
:1017200050E040E063E471E084E892E00E94FB0650
:10173000E114F10409F4CACE0E941802882309F4C6
:10174000C5CE0E940000C2CE64EF71E080E090E060
:101750000E94FE040E94D00560E081E00E947906AC
:101760008CE891E00E948E0660E086E00E94790697
:1017700081E991E00E948E0661E08FE00E94790687
:101780008BE991E00E949B0660ED77E080E090E0BD
:101790000E94FE040E94D0050E94A906BDCF0E94AF
:1017A00082038A3229F61092BD010E94D00560E0C2
:1017B00083E00E9479068DE991E00E948E061092E6
:1017C000BA011092B9010091B9011091BA01053B1B
:1017D000110554F4C8010E948D000B5F1F4F109338
:1017E000BA010093B901EFCF68EE73E080E090E0BA
:1017F0000E94FE040E94D00560E086E00E94790607
:101800008AEA91E00E948E0668EE73E080E090E044
:101810000E94FE040E94A9061092BC011092BB0116
:1018200087CF84E892E00E94CB068AE892E00C948D
:10183000CB06052E97FB1EF400940E94300C57FD3A
:1018400007D00E94820C07FC03D04EF40C94300C9D
:1018500050954095309521953F4F4F4F5F4F0895DC
:1018600090958095709561957F4F8F4F9F4F08950C
:101870000E94A40CA59F900DB49F900DA49F800D75
:10188000911D11240895B7FF0C94380C0E94380C58
:10189000821B930B08952F923F924F925F926F920B
:1018A0007F928F929F92AF92BF92CF92DF92EF92F0
:1018B000FF920F931F93CF93DF93CDB7DEB7CA1B71
:1018C000DB0B0FB6F894DEBF0FBECDBF09942A889C
:1018D000398848885F846E847D848C849B84AA8444
:1018E000B984C884DF80EE80FD800C811B81AA81D1
:1018F000B981CE0FD11D0FB6F894DEBF0FBECDBF9C
:10190000ED010895A1E21A2EAA1BBB1BFD010DC01B
:10191000AA1FBB1FEE1FFF1FA217B307E407F5079F
:1019200020F0A21BB30BE40BF50B661F771F881F7B
:10193000991F1A9469F760957095809590959B0111
:10194000AC01BD01CF010895A29FB001B39FC001BA
:10195000A39F700D811D1124911DB29F700D811DDB
:101960001124911D0895991B79E004C0991F9617C1
:1019700008F0961B881F7A95C9F780950895EE0F99
:10198000FF1F0590F491E02D09940F931F93CF93BF
:10199000DF938230910510F482E090E0E0911C0327
:1019A000F0911D0330E020E0B0E0A0E0309799F422
:1019B0002115310509F44AC0281B390B24303105A3
:1019C000D8F58A819B816115710589F1FB019383AB
:1019D0008283FE0111C04081518102811381481729
:1019E0005907E0F04817590799F4109761F01296DB
:1019F0000C93129713961C933296CF01DF91CF91DF
:101A00001F910F91089500931C0310931D03F4CFB1
:101A10002115310551F04217530738F0A901DB01B8
:101A20009A01BD01DF01F801C1CFEF01F9CF909319
:101A30001D0380931C03CDCFFE01E20FF31F8193A2
:101A400091932250310939832883D7CF20911A03EB
:101A500030911B03232B41F4209115013091160185
:101A600030931B0320931A0320911301309114012A
:101A70002115310541F42DB73EB740911701509122
:101A80001801241B350BE0911A03F0911B03E21798
:101A9000F307A0F42E1B3F0B2817390778F0AC0191
:101AA0004E5F5F4F2417350748F04E0F5F1F50936E
:101AB0001B0340931A03819391939FCFF0E0E0E0E2
:101AC0009CCFCF93DF930097E9F0FC01329713820C
:101AD0001282A0911C03B0911D03ED0130E020E0C3
:101AE0001097A1F420813181820F931F20911A0356
:101AF00030911B032817390709F061C0F0931B03CD
:101B0000E0931A03DF91CF910895EA01CE17DF0722
:101B1000E8F54A815B819E0141155105B1F7E90164
:101B2000FB83EA8349915991C40FD51FEC17FD0738
:101B300061F4808191810296840F951FE901998358
:101B40008883828193819B838A83F0E0E0E0129610
:101B50008D919C9113970097B9F52D913C91119718
:101B6000CD010296820F931F20911A0330911B031F
:101B70002817390739F6309751F510921D03109246
:101B80001C03B0931B03A0931A03BCCFD383C2835F
:101B900040815181840F951FC817D90761F44E5FAA
:101BA0005F4F88819981480F591F518340838A81F3
:101BB0009B81938382832115310509F0B0CFF09387
:101BC0001D03E0931C039ECFFD01DC01C0CF1382F7
:101BD0001282D7CFB0E0A0E0E0EFFDE00C944D0C16
:101BE0008C01009751F4CB010E94C50C8C01C801F7
:101BF000CDB7DEB7E0E10C94690CFC01E60FF71FEE
:101C00009C0122503109E217F30708F49DC0D90165
:101C1000CD91DC911197C617D70798F0C530D10543
:101C200030F3CE0104978617970708F3C61BD70B2E
:101C30002297C193D1936D937C93CF010E94610D44
:101C4000D6CF5B01AC1ABD0A4C018C0E9D1EA09133
:101C50001C03B0911D03512C412CF12CE12C109749
:101C600031F580911A0390911B038815990509F0AD
:101C70005CC04616570608F058C080911301909139
:101C80001401009741F48DB79EB740911701509110
:101C90001801841B950BE817F90708F055C0F0935D
:101CA0001B03E0931A03F90171836083A0CF8D9128
:101CB0009C91119712966C90129713967C901397A3
:101CC000A815B90559F56C0142E0C40ED11CCA141F
:101CD000DB0420F1AC014A195B09DA011296159771
:101CE00080F06282738251834083D9016D937C932B
:101CF000E114F10471F0D7011396FC93EE9312975F
:101D000076CF22968C0F9D1FF90191838083F3017A
:101D1000EFCFF0931D03E0931C0369CF48165906DB
:101D200008F42C017D01D3019ACFCB010E94C50C90
:101D30007C01009749F0AE01B8010E94A70EC801CE
:101D40000E94610D870153CF10E000E050CFFB01EE
:101D5000DC0102C001900D9241505040D8F7089527
:101D6000FB01DC0101900D920020E1F7089510E0E5
:101D7000C2E6D0E004C0FE010E94BF0C2196C3362B
:081D8000D107C9F7F894FFCF69
:101D88000506070102030431323334353637383952
:101D98002A302300001E038000000000004E02AE1F
:101DA80001DB019B020C02EA01FE01000000007E3B
:101DB800033E030D03000000008806AE0131053024
:101DC800050D0A0057726974652070617373776F27
:101DD800726400546F206F70656E207468652064AB
:101DE8006F6F7200343536370050617373776F72D6
:101DF800643A002A00416363657373204772616E19
:101E08007465640057656C636F6D6500436F646546
:101E180000496E636F727265637400200052454C0E
:101E28004F434B494E472E2E2E004C4F434B4544B3
:021E38000000A8
:00000001FF
